{
  "_format": "hh-sol-artifact-1",
  "contractName": "BorrowDAPP",
  "sourceName": "contracts/BorrowDAPP.sol",
  "abi": [
    {
      "inputs": [
        {
          "internalType": "address",
          "name": "_messageService",
          "type": "address"
        },
        {
          "internalType": "address",
          "name": "_otherSide",
          "type": "address"
        },
        {
          "internalType": "address",
          "name": "_dollars",
          "type": "address"
        },
        {
          "internalType": "address[]",
          "name": "_approvedNftContracts",
          "type": "address[]"
        }
      ],
      "stateMutability": "nonpayable",
      "type": "constructor"
    },
    {
      "anonymous": false,
      "inputs": [
        {
          "indexed": true,
          "internalType": "address",
          "name": "caller",
          "type": "address"
        }
      ],
      "name": "CounterIncremented",
      "type": "event"
    },
    {
      "anonymous": false,
      "inputs": [],
      "name": "LoanDenied",
      "type": "event"
    },
    {
      "anonymous": false,
      "inputs": [],
      "name": "LoanGranted",
      "type": "event"
    },
    {
      "anonymous": false,
      "inputs": [
        {
          "indexed": true,
          "internalType": "address",
          "name": "nftAddress",
          "type": "address"
        },
        {
          "indexed": true,
          "internalType": "uint256",
          "name": "tokenId",
          "type": "uint256"
        },
        {
          "indexed": true,
          "internalType": "bytes32",
          "name": "tokenUUID",
          "type": "bytes32"
        }
      ],
      "name": "NftDeposited",
      "type": "event"
    },
    {
      "inputs": [
        {
          "internalType": "address[]",
          "name": "_nftContract",
          "type": "address[]"
        }
      ],
      "name": "approveNftContracts",
      "outputs": [],
      "stateMutability": "nonpayable",
      "type": "function"
    },
    {
      "inputs": [],
      "name": "canonicalMessageService",
      "outputs": [
        {
          "internalType": "contract IMessageService",
          "name": "",
          "type": "address"
        }
      ],
      "stateMutability": "view",
      "type": "function"
    },
    {
      "inputs": [
        {
          "internalType": "address",
          "name": "borrower",
          "type": "address"
        },
        {
          "internalType": "uint256",
          "name": "credit",
          "type": "uint256"
        }
      ],
      "name": "claimCredit",
      "outputs": [],
      "stateMutability": "payable",
      "type": "function"
    },
    {
      "inputs": [
        {
          "internalType": "address",
          "name": "_nftAddress",
          "type": "address"
        },
        {
          "internalType": "uint256",
          "name": "_tokenId",
          "type": "uint256"
        }
      ],
      "name": "depositNFT",
      "outputs": [],
      "stateMutability": "payable",
      "type": "function"
    },
    {
      "inputs": [],
      "name": "dollars",
      "outputs": [
        {
          "internalType": "contract IERC20",
          "name": "",
          "type": "address"
        }
      ],
      "stateMutability": "view",
      "type": "function"
    },
    {
      "inputs": [],
      "name": "incrementMeaninglessCounter",
      "outputs": [],
      "stateMutability": "payable",
      "type": "function"
    },
    {
      "inputs": [],
      "name": "incrementOnOtherSide",
      "outputs": [],
      "stateMutability": "nonpayable",
      "type": "function"
    },
    {
      "inputs": [],
      "name": "meaninglessCounter",
      "outputs": [
        {
          "internalType": "uint256",
          "name": "",
          "type": "uint256"
        }
      ],
      "stateMutability": "view",
      "type": "function"
    },
    {
      "inputs": [
        {
          "internalType": "bytes32",
          "name": "",
          "type": "bytes32"
        }
      ],
      "name": "nftOwners",
      "outputs": [
        {
          "internalType": "address",
          "name": "",
          "type": "address"
        }
      ],
      "stateMutability": "view",
      "type": "function"
    },
    {
      "inputs": [
        {
          "internalType": "bytes32",
          "name": "",
          "type": "bytes32"
        }
      ],
      "name": "nftValues",
      "outputs": [
        {
          "internalType": "uint256",
          "name": "",
          "type": "uint256"
        }
      ],
      "stateMutability": "view",
      "type": "function"
    },
    {
      "inputs": [],
      "name": "otherSide",
      "outputs": [
        {
          "internalType": "contract IBorrowDAPP",
          "name": "",
          "type": "address"
        }
      ],
      "stateMutability": "view",
      "type": "function"
    },
    {
      "inputs": [
        {
          "internalType": "address",
          "name": "_otherSide",
          "type": "address"
        }
      ],
      "name": "setOtherSide",
      "outputs": [],
      "stateMutability": "nonpayable",
      "type": "function"
    }
  ],
  "bytecode": "0x6080604052600080553480156200001557600080fd5b5060405162000bd438038062000bd4833981016040819052620000389162000189565b600180546001600160a01b038681166001600160a01b031992831617909255600280548684169083161790556003805492851692909116821790556040516340c10f1960e01b81523060048201526a52b7d2dcc80cd2e400000060248201526340c10f1990604401600060405180830381600087803b158015620000bb57600080fd5b505af1158015620000d0573d6000803e3d6000fd5b50505050620000e581620000ef60201b60201c565b50505050620002aa565b60005b8151811015620001525760016004600084848151811062000117576200011762000294565b6020908102919091018101516001600160a01b03168252810191909152604001600020805460ff1916911515919091179055600101620000f2565b5050565b80516001600160a01b03811681146200016e57600080fd5b919050565b634e487b7160e01b600052604160045260246000fd5b60008060008060808587031215620001a057600080fd5b620001ab8562000156565b93506020620001bc81870162000156565b9350620001cc6040870162000156565b60608701519093506001600160401b0380821115620001ea57600080fd5b818801915088601f830112620001ff57600080fd5b81518181111562000214576200021462000173565b8060051b604051601f19603f830116810181811085821117156200023c576200023c62000173565b60405291825284820192508381018501918b8311156200025b57600080fd5b938501935b828510156200028457620002748562000156565b8452938501939285019262000260565b989b979a50959850505050505050565b634e487b7160e01b600052603260045260246000fd5b61091a80620002ba6000396000f3fe6080604052600436106100a75760003560e01c8063cdd76e8011610064578063cdd76e8014610177578063cf88871b14610197578063d0a799901461019f578063ed2fbf6e146101bf578063f0022dca146101df578063fb2b42ba1461021557600080fd5b80630590725d146100ac57806330469dea146100d55780634feee8d6146100ec57806353e385b1146100ff578063701e99cb1461012c5780639b5b9b1814610164575b600080fd5b3480156100b857600080fd5b506100c260005481565b6040519081526020015b60405180910390f35b3480156100e157600080fd5b506100ea610252565b005b6100ea6100fa3660046106ad565b6102e5565b34801561010b57600080fd5b506100c261011a3660046106d7565b60066020526000908152604090205481565b34801561013857600080fd5b5060035461014c906001600160a01b031681565b6040516001600160a01b0390911681526020016100cc565b6100ea6101723660046106ad565b610361565b34801561018357600080fd5b5060025461014c906001600160a01b031681565b6100ea610597565b3480156101ab57600080fd5b5060015461014c906001600160a01b031681565b3480156101cb57600080fd5b506100ea6101da366004610706565b6105d8565b3480156101eb57600080fd5b5061014c6101fa3660046106d7565b6005602052600090815260409020546001600160a01b031681565b34801561022157600080fd5b506100ea6102303660046107cb565b600280546001600160a01b0319166001600160a01b0392909216919091179055565b6001546002546040805160048082526024820183526020820180516001600160e01b031663cf88871b60e01b1790529151634f9e72ad60e11b81526001600160a01b0394851694639f3ce55a946102b194911692600092909101610833565b600060405180830381600087803b1580156102cb57600080fd5b505af11580156102df573d6000803e3d6000fd5b50505050565b60035460405163a9059cbb60e01b81526001600160a01b038481166004830152602482018490529091169063a9059cbb906044016020604051808303816000875af1158015610338573d6000803e3d6000fd5b505050506040513d601f19601f8201168201806040525081019061035c9190610863565b505050565b6001600160a01b03821660009081526004602052604090205460ff166103cd5760405162461bcd60e51b815260206004820152601960248201527f4e465420636f6e7472616374206e6f7420617070726f76656400000000000000604482015260640160405180910390fd5b6040516323b872dd60e01b8152336004820152306024820152604481018290526001600160a01b038316906323b872dd90606401600060405180830381600087803b15801561041b57600080fd5b505af115801561042f573d6000803e3d6000fd5b50505050600061045b6040518060400160405280856001600160a01b031681526020018481525061063a565b600081815260056020908152604080832080546001600160a01b0319163317905560069091529020674563918244f400009055600154600280549293506001600160a01b0391821692639f3ce55a9234929116906104b99083610885565b60008681526006602052604090819020549051336024820152604481019190915260640160408051601f198184030181529181526020820180516001600160e01b03166327f7746b60e11b1790525160e086901b6001600160e01b031916815261052893929190600401610833565b6000604051808303818588803b15801561054157600080fd5b505af1158015610555573d6000803e3d6000fd5b50505050508082846001600160a01b03167f58102c3f87d2b3f537bca73adfe57b312b6c44f0a58be637ae096ffe44fc165160405160405180910390a4505050565b6000805490806105a6836108a7565b909155505060405133907f773d4e328bf2144c69c7b424a9b0e4f17169e879f74635b2a492904d784eb83e90600090a2565b60005b8151811015610636576001600460008484815181106105fc576105fc6108ce565b6020908102919091018101516001600160a01b03168252810191909152604001600020805460ff19169115159190911790556001016105db565b5050565b60008160000151826020015160405160200161067492919060609290921b6bffffffffffffffffffffffff19168252601482015260340190565b604051602081830303815290604052805190602001209050919050565b80356001600160a01b03811681146106a857600080fd5b919050565b600080604083850312156106c057600080fd5b6106c983610691565b946020939093013593505050565b6000602082840312156106e957600080fd5b5035919050565b634e487b7160e01b600052604160045260246000fd5b6000602080838503121561071957600080fd5b823567ffffffffffffffff8082111561073157600080fd5b818501915085601f83011261074557600080fd5b813581811115610757576107576106f0565b8060051b604051601f19603f8301168101818110858211171561077c5761077c6106f0565b60405291825284820192508381018501918883111561079a57600080fd5b938501935b828510156107bf576107b085610691565b8452938501939285019261079f565b98975050505050505050565b6000602082840312156107dd57600080fd5b6107e682610691565b9392505050565b6000815180845260005b81811015610813576020818501810151868301820152016107f7565b506000602082860101526020601f19601f83011685010191505092915050565b60018060a01b038416815282602082015260606040820152600061085a60608301846107ed565b95945050505050565b60006020828403121561087557600080fd5b815180151581146107e657600080fd5b6000826108a257634e487b7160e01b600052601260045260246000fd5b500490565b6000600182016108c757634e487b7160e01b600052601160045260246000fd5b5060010190565b634e487b7160e01b600052603260045260246000fdfea26469706673582212207abb441d7685af84139883b6e5e5779f2b3f0c74354fcff52f78287032a2bfbf64736f6c63430008180033",
  "linkReferences": {},
  "deployedLinkReferences": {}
}