{
  "_format": "hh-sol-artifact-1",
  "contractName": "BorrowDAPP",
  "sourceName": "contracts/BorrowDAPP.sol",
  "abi": [
    {
      "inputs": [
        {
          "internalType": "address",
          "name": "_messageService",
          "type": "address"
        },
        {
          "internalType": "address",
          "name": "_otherSide",
          "type": "address"
        }
      ],
      "stateMutability": "nonpayable",
      "type": "constructor"
    },
    {
      "anonymous": false,
      "inputs": [
        {
          "indexed": true,
          "internalType": "address",
          "name": "caller",
          "type": "address"
        }
      ],
      "name": "CounterIncremented",
      "type": "event"
    },
    {
      "anonymous": false,
      "inputs": [],
      "name": "LoanDenied",
      "type": "event"
    },
    {
      "anonymous": false,
      "inputs": [],
      "name": "LoanGranted",
      "type": "event"
    },
    {
      "anonymous": false,
      "inputs": [],
      "name": "NftDeposited",
      "type": "event"
    },
    {
      "inputs": [
        {
          "internalType": "address",
          "name": "_nftContract",
          "type": "address"
        }
      ],
      "name": "approveNftContract",
      "outputs": [],
      "stateMutability": "nonpayable",
      "type": "function"
    },
    {
      "inputs": [
        {
          "internalType": "uint256",
          "name": "amountRequested",
          "type": "uint256"
        }
      ],
      "name": "borrowEth",
      "outputs": [],
      "stateMutability": "nonpayable",
      "type": "function"
    },
    {
      "inputs": [],
      "name": "canonicalMessageService",
      "outputs": [
        {
          "internalType": "contract IMessageService",
          "name": "",
          "type": "address"
        }
      ],
      "stateMutability": "view",
      "type": "function"
    },
    {
      "inputs": [
        {
          "internalType": "address",
          "name": "_nftAddress",
          "type": "address"
        },
        {
          "internalType": "uint256",
          "name": "_tokenId",
          "type": "uint256"
        }
      ],
      "name": "depositNFT",
      "outputs": [],
      "stateMutability": "nonpayable",
      "type": "function"
    },
    {
      "inputs": [],
      "name": "incrementMeaninglessCounter",
      "outputs": [],
      "stateMutability": "payable",
      "type": "function"
    },
    {
      "inputs": [],
      "name": "incrementOnOtherSide",
      "outputs": [],
      "stateMutability": "nonpayable",
      "type": "function"
    },
    {
      "inputs": [],
      "name": "meaninglessCounter",
      "outputs": [
        {
          "internalType": "uint256",
          "name": "",
          "type": "uint256"
        }
      ],
      "stateMutability": "view",
      "type": "function"
    },
    {
      "inputs": [],
      "name": "otherSide",
      "outputs": [
        {
          "internalType": "contract IBorrowDAPP",
          "name": "",
          "type": "address"
        }
      ],
      "stateMutability": "view",
      "type": "function"
    },
    {
      "inputs": [
        {
          "internalType": "address",
          "name": "_otherSide",
          "type": "address"
        }
      ],
      "name": "setOtherSide",
      "outputs": [],
      "stateMutability": "nonpayable",
      "type": "function"
    }
  ],
  "bytecode": "0x60806040526000805534801561001457600080fd5b506040516104be3803806104be83398101604081905261003391610080565b600180546001600160a01b039384166001600160a01b031991821617909155600280549290931691161790556100b3565b80516001600160a01b038116811461007b57600080fd5b919050565b6000806040838503121561009357600080fd5b61009c83610064565b91506100aa60208401610064565b90509250929050565b6103fc806100c26000396000f3fe6080604052600436106100865760003560e01c80639b5b9b18116100595780639b5b9b1814610128578063cdd76e8014610147578063cf88871b1461017f578063d0a7999014610187578063fb2b42ba146101a757600080fd5b80630590725d1461008b57806308554273146100b457806330469dea146100d457806340481bac146100e9575b600080fd5b34801561009757600080fd5b506100a160005481565b6040519081526020015b60405180910390f35b3480156100c057600080fd5b506100d26100cf3660046102b8565b50565b005b3480156100e057600080fd5b506100d26101e4565b3480156100f557600080fd5b506100d26101043660046102ed565b6001600160a01b03166000908152600360205260409020805460ff19166001179055565b34801561013457600080fd5b506100d261014336600461030f565b5050565b34801561015357600080fd5b50600254610167906001600160a01b031681565b6040516001600160a01b0390911681526020016100ab565b6100d2610277565b34801561019357600080fd5b50600154610167906001600160a01b031681565b3480156101b357600080fd5b506100d26101c23660046102ed565b600280546001600160a01b0319166001600160a01b0392909216919091179055565b6001546002546040805160048082526024820183526020820180516001600160e01b031663cf88871b60e01b1790529151634f9e72ad60e11b81526001600160a01b0394851694639f3ce55a9461024394911692600092909101610339565b600060405180830381600087803b15801561025d57600080fd5b505af1158015610271573d6000803e3d6000fd5b50505050565b6000805490806102868361039f565b909155505060405133907f773d4e328bf2144c69c7b424a9b0e4f17169e879f74635b2a492904d784eb83e90600090a2565b6000602082840312156102ca57600080fd5b5035919050565b80356001600160a01b03811681146102e857600080fd5b919050565b6000602082840312156102ff57600080fd5b610308826102d1565b9392505050565b6000806040838503121561032257600080fd5b61032b836102d1565b946020939093013593505050565b60018060a01b03841681526000602084602084015260606040840152835180606085015260005b8181101561037c57858101830151858201608001528201610360565b506000608082860101526080601f19601f83011685010192505050949350505050565b6000600182016103bf57634e487b7160e01b600052601160045260246000fd5b506001019056fea264697066735822122060cf6f3f5758e32f5f2470d00c3635192c74d1bc4c06985f0b8e9417f787fe7164736f6c63430008180033",
  "linkReferences": {},
  "deployedLinkReferences": {}
}